{
  "contractName": "FactoryCertificate",
  "abi": [
    {
      "constant": true,
      "inputs": [],
      "name": "iFactory",
      "outputs": [
        {
          "name": "",
          "type": "uint256"
        }
      ],
      "payable": false,
      "stateMutability": "view",
      "type": "function"
    },
    {
      "constant": true,
      "inputs": [
        {
          "name": "_index",
          "type": "uint256"
        }
      ],
      "name": "getCertificateStorage",
      "outputs": [
        {
          "name": "",
          "type": "address"
        },
        {
          "name": "",
          "type": "uint256"
        },
        {
          "name": "",
          "type": "uint256"
        }
      ],
      "payable": false,
      "stateMutability": "view",
      "type": "function"
    },
    {
      "constant": false,
      "inputs": [],
      "name": "createCertificateStorage",
      "outputs": [
        {
          "name": "",
          "type": "bool"
        }
      ],
      "payable": false,
      "stateMutability": "nonpayable",
      "type": "function"
    },
    {
      "constant": false,
      "inputs": [
        {
          "name": "_value",
          "type": "uint256"
        }
      ],
      "name": "setStorageLimit",
      "outputs": [
        {
          "name": "",
          "type": "uint256"
        }
      ],
      "payable": false,
      "stateMutability": "nonpayable",
      "type": "function"
    },
    {
      "constant": true,
      "inputs": [
        {
          "name": "",
          "type": "uint256"
        }
      ],
      "name": "certificateStorages",
      "outputs": [
        {
          "name": "storageAddress",
          "type": "address"
        },
        {
          "name": "currentNrOfRecords",
          "type": "uint256"
        },
        {
          "name": "storageLimitation",
          "type": "uint256"
        }
      ],
      "payable": false,
      "stateMutability": "view",
      "type": "function"
    },
    {
      "inputs": [
        {
          "name": "_osu",
          "type": "address"
        }
      ],
      "payable": false,
      "stateMutability": "nonpayable",
      "type": "constructor"
    },
    {
      "anonymous": false,
      "inputs": [
        {
          "indexed": false,
          "name": "certificate",
          "type": "address"
        },
        {
          "indexed": false,
          "name": "now_time",
          "type": "uint256"
        }
      ],
      "name": "CertificateStorageCreated",
      "type": "event"
    }
  ],
  "bytecode": "0x6060604052341561000f57600080fd5b604051602080612dba8339810160405280805190602001909190505033600160006101000a81548173ffffffffffffffffffffffffffffffffffffffff021916908373ffffffffffffffffffffffffffffffffffffffff160217905550806000806101000a81548173ffffffffffffffffffffffffffffffffffffffff021916908373ffffffffffffffffffffffffffffffffffffffff160217905550620186a060038190555050612cf4806100c66000396000f30060606040526004361061006d576000357c0100000000000000000000000000000000000000000000000000000000900463ffffffff16806320b58139146100725780632feed10f1461009b5780636b152f981461010c578063b3c156da14610139578063c002082114610170575b600080fd5b341561007d57600080fd5b6100856101e1565b6040518082815260200191505060405180910390f35b34156100a657600080fd5b6100bc60048080359060200190919050506101e7565b604051808473ffffffffffffffffffffffffffffffffffffffff1673ffffffffffffffffffffffffffffffffffffffff168152602001838152602001828152602001935050505060405180910390f35b341561011757600080fd5b61011f6102a1565b604051808215151515815260200191505060405180910390f35b341561014457600080fd5b61015a60048080359060200190919050506104a1565b6040518082815260200191505060405180910390f35b341561017b57600080fd5b6101916004808035906020019091905050610569565b604051808473ffffffffffffffffffffffffffffffffffffffff1673ffffffffffffffffffffffffffffffffffffffff168152602001838152602001828152602001935050505060405180910390f35b60045481565b60008060006005805490508410151561021057600080600081915080905092509250925061029a565b60058481548110151561021f57fe5b906000526020600020906003020160000160009054906101000a900473ffffffffffffffffffffffffffffffffffffffff1660058581548110151561026057fe5b90600052602060002090600302016001015460058681548110151561028157fe5b9060005260206000209060030201600201549250925092505b9193909250565b600080600160009054906101000a900473ffffffffffffffffffffffffffffffffffffffff166000809054906101000a900473ffffffffffffffffffffffffffffffffffffffff166102f16105c2565b808373ffffffffffffffffffffffffffffffffffffffff1673ffffffffffffffffffffffffffffffffffffffff1681526020018273ffffffffffffffffffffffffffffffffffffffff1673ffffffffffffffffffffffffffffffffffffffff16815260200192505050604051809103906000f080151561037057600080fd5b90506005805480600101828161038691906105d2565b916000526020600020906003020160006060604051908101604052808573ffffffffffffffffffffffffffffffffffffffff16815260200160008152602001600354815250909190915060008201518160000160006101000a81548173ffffffffffffffffffffffffffffffffffffffff021916908373ffffffffffffffffffffffffffffffffffffffff16021790555060208201518160010155604082015181600201555050507fefc2d1c035cb885e3764a3ed057f119a4e4b98d5c949e77d70ebb5237053fbb88142604051808373ffffffffffffffffffffffffffffffffffffffff1673ffffffffffffffffffffffffffffffffffffffff1681526020018281526020019250505060405180910390a1600191505090565b6000600160009054906101000a900473ffffffffffffffffffffffffffffffffffffffff1673ffffffffffffffffffffffffffffffffffffffff163373ffffffffffffffffffffffffffffffffffffffff161415801561054e57506000809054906101000a900473ffffffffffffffffffffffffffffffffffffffff1673ffffffffffffffffffffffffffffffffffffffff163373ffffffffffffffffffffffffffffffffffffffff1614155b1561055857600080fd5b816003819055506003549050919050565b60058181548110151561057857fe5b90600052602060002090600302016000915090508060000160009054906101000a900473ffffffffffffffffffffffffffffffffffffffff16908060010154908060020154905083565b60405161266e8061065b83390190565b8154818355818115116105ff576003028160030283600052602060002091820191016105fe9190610604565b5b505050565b61065791905b8082111561065357600080820160006101000a81549073ffffffffffffffffffffffffffffffffffffffff0219169055600182016000905560028201600090555060030161060a565b5090565b9056006060604052341561000f57600080fd5b60405160408061266e83398101604052808051906020019091908051906020019091905050816000806101000a81548173ffffffffffffffffffffffffffffffffffffffff021916908373ffffffffffffffffffffffffffffffffffffffff16021790555080600160006101000a81548173ffffffffffffffffffffffffffffffffffffffff021916908373ffffffffffffffffffffffffffffffffffffffff16021790555050506125a8806100c66000396000f300606060405260043610610062576000357c0100000000000000000000000000000000000000000000000000000000900463ffffffff168063773736a61461006757806391f0dce81461012b578063ba041a751461023f578063f88e7bb8146103c4575b600080fd5b341561007257600080fd5b610111600480803590602001909190803573ffffffffffffffffffffffffffffffffffffffff1690602001909190803573ffffffffffffffffffffffffffffffffffffffff1690602001909190803573ffffffffffffffffffffffffffffffffffffffff1690602001909190806040019060028060200260405190810160405280929190826002602002808284378201915050505050919050506104b7565b604051808215151515815260200191505060405180910390f35b341561013657600080fd5b61014c60048080359060200190919050506109dc565b604051808773ffffffffffffffffffffffffffffffffffffffff1673ffffffffffffffffffffffffffffffffffffffff1681526020018673ffffffffffffffffffffffffffffffffffffffff1673ffffffffffffffffffffffffffffffffffffffff1681526020018573ffffffffffffffffffffffffffffffffffffffff1673ffffffffffffffffffffffffffffffffffffffff168152602001841515151581526020018360ff1660ff1681526020018273ffffffffffffffffffffffffffffffffffffffff1673ffffffffffffffffffffffffffffffffffffffff168152602001965050505050505060405180910390f35b341561024a57600080fd5b6103aa600480803590602001909190803573ffffffffffffffffffffffffffffffffffffffff1690602001909190803573ffffffffffffffffffffffffffffffffffffffff1690602001909190803573ffffffffffffffffffffffffffffffffffffffff16906020019091908060400190600280602002604051908101604052809291908260026020028082843782019150505050509190803573ffffffffffffffffffffffffffffffffffffffff1690602001909190803573ffffffffffffffffffffffffffffffffffffffff1690602001909190803573ffffffffffffffffffffffffffffffffffffffff169060200190919080604001906002806020026040519081016040528092919082600260200280828437820191505050505091908060400190600280602002604051908101604052809291908260026020028082843782019150505050509190803560ff16906020019091905050610ac1565b604051808215151515815260200191505060405180910390f35b34156103cf57600080fd5b61049d600480803573ffffffffffffffffffffffffffffffffffffffff1690602001909190803573ffffffffffffffffffffffffffffffffffffffff1690602001909190803573ffffffffffffffffffffffffffffffffffffffff169060200190919080604001906002806020026040519081016040528092919082600260200280828437820191505050505091908060400190600280602002604051908101604052809291908260026020028082843782019150505050509190803560ff16906020019091905050611647565b604051808215151515815260200191505060405180910390f35b6000803373ffffffffffffffffffffffffffffffffffffffff168673ffffffffffffffffffffffffffffffffffffffff16148061051f57503373ffffffffffffffffffffffffffffffffffffffff168473ffffffffffffffffffffffffffffffffffffffff16145b8061057657503373ffffffffffffffffffffffffffffffffffffffff166000809054906101000a900473ffffffffffffffffffffffffffffffffffffffff1673ffffffffffffffffffffffffffffffffffffffff16145b806105ce57503373ffffffffffffffffffffffffffffffffffffffff16600160009054906101000a900473ffffffffffffffffffffffffffffffffffffffff1673ffffffffffffffffffffffffffffffffffffffff16145b15156105d957600080fd5b60028054905087101580156105f357506000600280549050115b15610624576032600280549050111561061e576002808054905081151561061657fe5b049650610623565b600096505b5b8573ffffffffffffffffffffffffffffffffffffffff1660028881548110151561064a57fe5b906000526020600020906008020160000160009054906101000a900473ffffffffffffffffffffffffffffffffffffffff1673ffffffffffffffffffffffffffffffffffffffff1614801561070a57508473ffffffffffffffffffffffffffffffffffffffff166002888154811015156106c057fe5b906000526020600020906008020160010160009054906101000a900473ffffffffffffffffffffffffffffffffffffffff1673ffffffffffffffffffffffffffffffffffffffff16145b801561078157508373ffffffffffffffffffffffffffffffffffffffff1660028881548110151561073757fe5b906000526020600020906008020160020160009054906101000a900473ffffffffffffffffffffffffffffffffffffffff1673ffffffffffffffffffffffffffffffffffffffff16145b80156107d6575082600160028110151561079757fe5b6020020151600019166002888154811015156107af57fe5b906000526020600020906008020160030160016002811015156107ce57fe5b015460001916145b156107eb576107e487611b8d565b91506109d2565b600090505b86811115156109cd578573ffffffffffffffffffffffffffffffffffffffff1660028281548110151561081f57fe5b906000526020600020906008020160000160009054906101000a900473ffffffffffffffffffffffffffffffffffffffff1673ffffffffffffffffffffffffffffffffffffffff161480156108df57508473ffffffffffffffffffffffffffffffffffffffff1660028281548110151561089557fe5b906000526020600020906008020160010160009054906101000a900473ffffffffffffffffffffffffffffffffffffffff1673ffffffffffffffffffffffffffffffffffffffff16145b801561095657508373ffffffffffffffffffffffffffffffffffffffff1660028281548110151561090c57fe5b906000526020600020906008020160020160009054906101000a900473ffffffffffffffffffffffffffffffffffffffff1673ffffffffffffffffffffffffffffffffffffffff16145b80156109ab575082600160028110151561096c57fe5b60200201516000191660028281548110151561098457fe5b906000526020600020906008020160030160016002811015156109a357fe5b015460001916145b156109c0576109b981611b8d565b91506109d2565b80806001019150506107f0565b600091505b5095945050505050565b6002818154811015156109eb57fe5b90600052602060002090600802016000915090508060000160009054906101000a900473ffffffffffffffffffffffffffffffffffffffff16908060010160009054906101000a900473ffffffffffffffffffffffffffffffffffffffff16908060020160009054906101000a900473ffffffffffffffffffffffffffffffffffffffff16908060070160009054906101000a900460ff16908060070160019054906101000a900460ff16908060070160029054906101000a900473ffffffffffffffffffffffffffffffffffffffff16905086565b60008060003373ffffffffffffffffffffffffffffffffffffffff168d73ffffffffffffffffffffffffffffffffffffffff161480610b2b57503373ffffffffffffffffffffffffffffffffffffffff168b73ffffffffffffffffffffffffffffffffffffffff16145b80610b8257503373ffffffffffffffffffffffffffffffffffffffff166000809054906101000a900473ffffffffffffffffffffffffffffffffffffffff1673ffffffffffffffffffffffffffffffffffffffff16145b80610bda57503373ffffffffffffffffffffffffffffffffffffffff16600160009054906101000a900473ffffffffffffffffffffffffffffffffffffffff1673ffffffffffffffffffffffffffffffffffffffff16145b1515610be557600080fd5b6002805490508e10158015610bff57506000600280549050115b15610c305760326002805490501115610c2a5760028080549050811515610c2257fe5b049d50610c2f565b60009d505b5b8c73ffffffffffffffffffffffffffffffffffffffff1660028f815481101515610c5657fe5b906000526020600020906008020160000160009054906101000a900473ffffffffffffffffffffffffffffffffffffffff1673ffffffffffffffffffffffffffffffffffffffff16148015610d1657508b73ffffffffffffffffffffffffffffffffffffffff1660028f815481101515610ccc57fe5b906000526020600020906008020160010160009054906101000a900473ffffffffffffffffffffffffffffffffffffffff1673ffffffffffffffffffffffffffffffffffffffff16145b8015610d8d57508a73ffffffffffffffffffffffffffffffffffffffff1660028f815481101515610d4357fe5b906000526020600020906008020160020160009054906101000a900473ffffffffffffffffffffffffffffffffffffffff1673ffffffffffffffffffffffffffffffffffffffff16145b8015610de25750896001600281101515610da357fe5b60200201516000191660028f815481101515610dbb57fe5b90600052602060002090600802016003016001600281101515610dda57fe5b015460001916145b15611123578860028f815481101515610df757fe5b906000526020600020906008020160000160006101000a81548173ffffffffffffffffffffffffffffffffffffffff021916908373ffffffffffffffffffffffffffffffffffffffff1602179055508760028f815481101515610e5657fe5b906000526020600020906008020160010160006101000a81548173ffffffffffffffffffffffffffffffffffffffff021916908373ffffffffffffffffffffffffffffffffffffffff1602179055508660028f815481101515610eb557fe5b906000526020600020906008020160020160006101000a81548173ffffffffffffffffffffffffffffffffffffffff021916908373ffffffffffffffffffffffffffffffffffffffff1602179055508560028f815481101515610f1457fe5b9060005260206000209060080201600301906002610f3392919061222c565b508460028f815481101515610f4457fe5b9060005260206000209060080201600501906002610f6392919061222c565b508360028f815481101515610f7457fe5b906000526020600020906008020160070160016101000a81548160ff021916908360ff16021790555060028e815481101515610fac57fe5b906000526020600020906008020160070160009054906101000a900460ff1691507fcb823bb9631f0d533afd11e45db14b06ca79d52fff9487e77b34431d74382fdc8989898989878a42604051808973ffffffffffffffffffffffffffffffffffffffff1673ffffffffffffffffffffffffffffffffffffffff1681526020018873ffffffffffffffffffffffffffffffffffffffff1673ffffffffffffffffffffffffffffffffffffffff1681526020018773ffffffffffffffffffffffffffffffffffffffff1673ffffffffffffffffffffffffffffffffffffffff16815260200186600260200280838360005b838110156110b757808201518184015260208101905061109c565b5050505090500185600260200280838360005b838110156110e55780820151818401526020810190506110ca565b50505050905001841515151581526020018360ff1660ff1681526020018281526020019850505050505050505060405180910390a160019250611636565b600090505b8d81111515611631578c73ffffffffffffffffffffffffffffffffffffffff1660028281548110151561115757fe5b906000526020600020906008020160000160009054906101000a900473ffffffffffffffffffffffffffffffffffffffff1673ffffffffffffffffffffffffffffffffffffffff1614801561121757508b73ffffffffffffffffffffffffffffffffffffffff166002828154811015156111cd57fe5b906000526020600020906008020160010160009054906101000a900473ffffffffffffffffffffffffffffffffffffffff1673ffffffffffffffffffffffffffffffffffffffff16145b801561128e57508a73ffffffffffffffffffffffffffffffffffffffff1660028281548110151561124457fe5b906000526020600020906008020160020160009054906101000a900473ffffffffffffffffffffffffffffffffffffffff1673ffffffffffffffffffffffffffffffffffffffff16145b80156112e357508960016002811015156112a457fe5b6020020151600019166002828154811015156112bc57fe5b906000526020600020906008020160030160016002811015156112db57fe5b015460001916145b1561162457886002828154811015156112f857fe5b906000526020600020906008020160000160006101000a81548173ffffffffffffffffffffffffffffffffffffffff021916908373ffffffffffffffffffffffffffffffffffffffff1602179055508760028281548110151561135757fe5b906000526020600020906008020160010160006101000a81548173ffffffffffffffffffffffffffffffffffffffff021916908373ffffffffffffffffffffffffffffffffffffffff160217905550866002828154811015156113b657fe5b906000526020600020906008020160020160006101000a81548173ffffffffffffffffffffffffffffffffffffffff021916908373ffffffffffffffffffffffffffffffffffffffff1602179055508560028281548110151561141557fe5b906000526020600020906008020160030190600261143492919061222c565b508460028281548110151561144557fe5b906000526020600020906008020160050190600261146492919061222c565b508360028281548110151561147557fe5b906000526020600020906008020160070160016101000a81548160ff021916908360ff1602179055506002818154811015156114ad57fe5b906000526020600020906008020160070160009054906101000a900460ff1691507fcb823bb9631f0d533afd11e45db14b06ca79d52fff9487e77b34431d74382fdc8989898989878a42604051808973ffffffffffffffffffffffffffffffffffffffff1673ffffffffffffffffffffffffffffffffffffffff1681526020018873ffffffffffffffffffffffffffffffffffffffff1673ffffffffffffffffffffffffffffffffffffffff1681526020018773ffffffffffffffffffffffffffffffffffffffff1673ffffffffffffffffffffffffffffffffffffffff16815260200186600260200280838360005b838110156115b857808201518184015260208101905061159d565b5050505090500185600260200280838360005b838110156115e65780820151818401526020810190506115cb565b50505050905001841515151581526020018360ff1660ff1681526020018281526020019850505050505050505060405180910390a160019250611636565b8080600101915050611128565b600092505b50509b9a5050505050505050505050565b60003373ffffffffffffffffffffffffffffffffffffffff168773ffffffffffffffffffffffffffffffffffffffff1614806116ae57503373ffffffffffffffffffffffffffffffffffffffff168573ffffffffffffffffffffffffffffffffffffffff16145b8061170557503373ffffffffffffffffffffffffffffffffffffffff166000809054906101000a900473ffffffffffffffffffffffffffffffffffffffff1673ffffffffffffffffffffffffffffffffffffffff16145b8061175d57503373ffffffffffffffffffffffffffffffffffffffff16600160009054906101000a900473ffffffffffffffffffffffffffffffffffffffff1673ffffffffffffffffffffffffffffffffffffffff16145b151561176857600080fd5b600073ffffffffffffffffffffffffffffffffffffffff168773ffffffffffffffffffffffffffffffffffffffff161480156117d05750600073ffffffffffffffffffffffffffffffffffffffff168573ffffffffffffffffffffffffffffffffffffffff16145b156117de5760009050611b83565b600280548060010182816117f29190612272565b91600052602060002090600802016000610100604051908101604052808b73ffffffffffffffffffffffffffffffffffffffff1681526020018a73ffffffffffffffffffffffffffffffffffffffff1681526020018973ffffffffffffffffffffffffffffffffffffffff1681526020018881526020018781526020016000151581526020018660ff1681526020013373ffffffffffffffffffffffffffffffffffffffff16815250909190915060008201518160000160006101000a81548173ffffffffffffffffffffffffffffffffffffffff021916908373ffffffffffffffffffffffffffffffffffffffff16021790555060208201518160010160006101000a81548173ffffffffffffffffffffffffffffffffffffffff021916908373ffffffffffffffffffffffffffffffffffffffff16021790555060408201518160020160006101000a81548173ffffffffffffffffffffffffffffffffffffffff021916908373ffffffffffffffffffffffffffffffffffffffff16021790555060608201518160030190600261198c9291906122a4565b506080820151816005019060026119a49291906122a4565b5060a08201518160070160006101000a81548160ff02191690831515021790555060c08201518160070160016101000a81548160ff021916908360ff16021790555060e08201518160070160026101000a81548173ffffffffffffffffffffffffffffffffffffffff021916908373ffffffffffffffffffffffffffffffffffffffff1602179055505050507f24837eb6268f86145a50117bc6605fd20b9a80ddd9a8d9bb7f6990b13ab604c6878787878760008842604051808973ffffffffffffffffffffffffffffffffffffffff1673ffffffffffffffffffffffffffffffffffffffff1681526020018873ffffffffffffffffffffffffffffffffffffffff1673ffffffffffffffffffffffffffffffffffffffff1681526020018773ffffffffffffffffffffffffffffffffffffffff1673ffffffffffffffffffffffffffffffffffffffff16815260200186600260200280838360005b83811015611b1b578082015181840152602081019050611b00565b5050505090500185600260200280838360005b83811015611b49578082015181840152602081019050611b2e565b50505050905001841515151581526020018360ff1660ff1681526020018281526020019850505050505050505060405180910390a1600190505b9695505050505050565b6000611b976122ea565b60028054905083101515611bae5760009150612226565b6001604051805910611bbd5750595b908082528060200260200182016040528015611bf357816020015b611be06122fe565b815260200190600190039081611bd85790505b509050600283815481101515611c0557fe5b906000526020600020906008020161010060405190810160405290816000820160009054906101000a900473ffffffffffffffffffffffffffffffffffffffff1673ffffffffffffffffffffffffffffffffffffffff1673ffffffffffffffffffffffffffffffffffffffff1681526020016001820160009054906101000a900473ffffffffffffffffffffffffffffffffffffffff1673ffffffffffffffffffffffffffffffffffffffff1673ffffffffffffffffffffffffffffffffffffffff1681526020016002820160009054906101000a900473ffffffffffffffffffffffffffffffffffffffff1673ffffffffffffffffffffffffffffffffffffffff1673ffffffffffffffffffffffffffffffffffffffff16815260200160038201600280602002604051908101604052809291908260028015611d62576020028201915b81546000191681526020019060010190808311611d4a575b5050505050815260200160058201600280602002604051908101604052809291908260028015611dab576020028201915b81546000191681526020019060010190808311611d93575b505050505081526020016007820160009054906101000a900460ff161515151581526020016007820160019054906101000a900460ff1660ff1660ff1681526020016007820160029054906101000a900473ffffffffffffffffffffffffffffffffffffffff1673ffffffffffffffffffffffffffffffffffffffff1673ffffffffffffffffffffffffffffffffffffffff1681525050816000815181101515611e5157fe5b906020019060200201819052506002600160028054905003815481101515611e7557fe5b9060005260206000209060080201600284815481101515611e9257fe5b90600052602060002090600802016000820160009054906101000a900473ffffffffffffffffffffffffffffffffffffffff168160000160006101000a81548173ffffffffffffffffffffffffffffffffffffffff021916908373ffffffffffffffffffffffffffffffffffffffff1602179055506001820160009054906101000a900473ffffffffffffffffffffffffffffffffffffffff168160010160006101000a81548173ffffffffffffffffffffffffffffffffffffffff021916908373ffffffffffffffffffffffffffffffffffffffff1602179055506002820160009054906101000a900473ffffffffffffffffffffffffffffffffffffffff168160020160006101000a81548173ffffffffffffffffffffffffffffffffffffffff021916908373ffffffffffffffffffffffffffffffffffffffff1602179055506003820181600301906002611feb9291906123ad565b5060058201816005019060026120029291906123ad565b506007820160009054906101000a900460ff168160070160006101000a81548160ff0219169083151502179055506007820160019054906101000a900460ff168160070160016101000a81548160ff021916908360ff1602179055506007820160029054906101000a900473ffffffffffffffffffffffffffffffffffffffff168160070160026101000a81548173ffffffffffffffffffffffffffffffffffffffff021916908373ffffffffffffffffffffffffffffffffffffffff16021790555090505060026001600280549050038154811015156120df57fe5b9060005260206000209060080201600080820160006101000a81549073ffffffffffffffffffffffffffffffffffffffff02191690556001820160006101000a81549073ffffffffffffffffffffffffffffffffffffffff02191690556002820160006101000a81549073ffffffffffffffffffffffffffffffffffffffff021916905560038201600061217391906123ea565b60058201600061218391906123ea565b6007820160006101000a81549060ff02191690556007820160016101000a81549060ff02191690556007820160026101000a81549073ffffffffffffffffffffffffffffffffffffffff0219169055505060028054809190600190036121e991906123f8565b507fcf148b1ad564139702f5077250105f4774bcd65be8b0cfc51fa7fef2e17ad8db426040518082815260200191505060405180910390a1600191505b50919050565b8260028101928215612261579160200282015b8281111561226057825182906000191690559160200191906001019061223f565b5b50905061226e919061242a565b5090565b81548183558181151161229f5760080281600802836000526020600020918201910161229e919061244f565b5b505050565b82600281019282156122d9579160200282015b828111156122d85782518290600019169055916020019190600101906122b7565b5b5090506122e6919061242a565b5090565b602060405190810160405280600081525090565b61014060405190810160405280600073ffffffffffffffffffffffffffffffffffffffff168152602001600073ffffffffffffffffffffffffffffffffffffffff168152602001600073ffffffffffffffffffffffffffffffffffffffff16815260200161236a612552565b8152602001612377612552565b8152602001600015158152602001600060ff168152602001600073ffffffffffffffffffffffffffffffffffffffff1681525090565b82600281019282156123d9579182015b828111156123d85782548255916001019190600101906123bd565b5b5090506123e6919061242a565b5090565b506000815560010160009055565b81548183558181151161242557600802816008028360005260206000209182019101612424919061244f565b5b505050565b61244c91905b80821115612448576000816000905550600101612430565b5090565b90565b61254f91905b8082111561254b57600080820160006101000a81549073ffffffffffffffffffffffffffffffffffffffff02191690556001820160006101000a81549073ffffffffffffffffffffffffffffffffffffffff02191690556002820160006101000a81549073ffffffffffffffffffffffffffffffffffffffff02191690556003820160006124e391906123ea565b6005820160006124f391906123ea565b6007820160006101000a81549060ff02191690556007820160016101000a81549060ff02191690556007820160026101000a81549073ffffffffffffffffffffffffffffffffffffffff021916905550600801612455565b5090565b90565b60408051908101604052806002905b600080191681526020019060019003908161256157905050905600a165627a7a72305820b19076673f51a92a14869d90157e053b570f04881589eb949e5941eb869092af0029a165627a7a723058209c17a95f1d17c57871fdd80ce7595fa914af20889b31165439b0a2cd3769e6a50029",
  "source": "\r\npragma solidity ^0.4.15;\r\n\r\nimport \"./MegaFactoryCertificate.sol\";\r\nimport \"./CertificateStorage.sol\";\r\n\r\ncontract FactoryCertificate {\r\n    event CertificateStorageCreated(address certificate, uint now_time);\r\n\r\n    // Ownership\r\n    address osu;\r\n    address owner;\r\n\r\n    // Mega factory\r\n    address megaFactoryAddress;\r\n\r\n    // Storage limitations\r\n    uint256 maxNrOfRecordsInCertificateStorage;\r\n    uint256 public iFactory;\r\n\r\n    struct CertificateStoragesStruct {\r\n        address storageAddress;\r\n        uint256 currentNrOfRecords;\r\n        uint256 storageLimitation;\r\n    }\r\n\r\n    CertificateStoragesStruct [] public certificateStorages;\r\n\r\n    modifier OwnerOrOSUniversity {\r\n        if(msg.sender != owner && msg.sender != osu)\r\n            revert();\r\n        else\r\n            _;\r\n    }\r\n\r\n    // Constructor\r\n    function FactoryCertificate(address _osu) {\r\n        owner = msg.sender;\r\n        osu = _osu;\r\n        maxNrOfRecordsInCertificateStorage = 100000;\r\n    }\r\n\r\n    // Create certificate (owners of the created certificate are OSUni and deployer)\r\n    function createCertificateStorage()\r\n        public\r\n        returns (bool)\r\n    {\r\n        CertificateStorage newCertificateStorage = new CertificateStorage(owner, osu);\r\n        certificateStorages.push(CertificateStoragesStruct(address(newCertificateStorage), 0, maxNrOfRecordsInCertificateStorage));\r\n        CertificateStorageCreated(newCertificateStorage, now);\r\n        return true;\r\n    }\r\n\r\n    // get data for specific certificate\r\n    function getCertificateStorage(uint _index) public constant returns (address, uint256, uint256) {\r\n        if (_index >= certificateStorages.length)\r\n            return (address(0), 0, 0);\r\n        else\r\n            return (certificateStorages[_index].storageAddress, certificateStorages[_index].currentNrOfRecords, certificateStorages[_index].storageLimitation);\r\n    }\r\n\r\n    // sets the limit of the future CertificateStorage contracts which will be created\r\n    function setStorageLimit(uint256 _value) public OwnerOrOSUniversity returns (uint256) {\r\n        maxNrOfRecordsInCertificateStorage = _value;\r\n        return maxNrOfRecordsInCertificateStorage;\r\n    }\r\n\r\n\r\n}\r\n",
  "sourcePath": "/home/jordan/Projects/platform/contracts/certificates/FactoryCertificate.sol",
  "compiler": {
    "name": "solc",
    "version": "0.4.18+commit.9cf6e910.Emscripten.clang"
  },
  "schemaVersion": "1.0.1",
  "updatedAt": "2018-01-22T13:34:14.791Z"
}